{
  "_format": "hh-sol-artifact-1",
  "contractName": "ColdChainProvenance",
  "sourceName": "contracts/ColdChainProvenance.sol",
  "abi": [
    {
      "inputs": [],
      "name": "EmptyEventType",
      "type": "error"
    },
    {
      "inputs": [],
      "name": "EmptyShipmentId",
      "type": "error"
    },
    {
      "inputs": [],
      "name": "ZeroHash",
      "type": "error"
    },
    {
      "anonymous": false,
      "inputs": [
        {
          "indexed": true,
          "internalType": "string",
          "name": "shipmentId",
          "type": "string"
        },
        {
          "indexed": false,
          "internalType": "string",
          "name": "eventType",
          "type": "string"
        },
        {
          "indexed": false,
          "internalType": "bytes32",
          "name": "dataHash",
          "type": "bytes32"
        },
        {
          "indexed": false,
          "internalType": "uint256",
          "name": "timestamp",
          "type": "uint256"
        },
        {
          "indexed": true,
          "internalType": "address",
          "name": "sender",
          "type": "address"
        }
      ],
      "name": "EventAnchored",
      "type": "event"
    },
    {
      "inputs": [
        {
          "internalType": "string",
          "name": "shipmentId",
          "type": "string"
        },
        {
          "internalType": "string",
          "name": "eventType",
          "type": "string"
        },
        {
          "internalType": "bytes32",
          "name": "dataHash",
          "type": "bytes32"
        }
      ],
      "name": "anchorEvent",
      "outputs": [],
      "stateMutability": "nonpayable",
      "type": "function"
    },
    {
      "inputs": [
        {
          "internalType": "string",
          "name": "shipmentId",
          "type": "string"
        }
      ],
      "name": "getEventCount",
      "outputs": [
        {
          "internalType": "uint256",
          "name": "",
          "type": "uint256"
        }
      ],
      "stateMutability": "view",
      "type": "function"
    },
    {
      "inputs": [
        {
          "internalType": "string",
          "name": "shipmentId",
          "type": "string"
        }
      ],
      "name": "getEvents",
      "outputs": [
        {
          "components": [
            {
              "internalType": "string",
              "name": "shipmentId",
              "type": "string"
            },
            {
              "internalType": "string",
              "name": "eventType",
              "type": "string"
            },
            {
              "internalType": "bytes32",
              "name": "dataHash",
              "type": "bytes32"
            },
            {
              "internalType": "uint256",
              "name": "timestamp",
              "type": "uint256"
            },
            {
              "internalType": "address",
              "name": "sender",
              "type": "address"
            }
          ],
          "internalType": "struct ColdChainProvenance.ChainEvent[]",
          "name": "",
          "type": "tuple[]"
        }
      ],
      "stateMutability": "view",
      "type": "function"
    },
    {
      "inputs": [],
      "name": "totalEvents",
      "outputs": [
        {
          "internalType": "uint256",
          "name": "",
          "type": "uint256"
        }
      ],
      "stateMutability": "view",
      "type": "function"
    },
    {
      "inputs": [
        {
          "internalType": "string",
          "name": "shipmentId",
          "type": "string"
        },
        {
          "internalType": "bytes32",
          "name": "dataHash",
          "type": "bytes32"
        }
      ],
      "name": "verifyHash",
      "outputs": [
        {
          "internalType": "bool",
          "name": "",
          "type": "bool"
        }
      ],
      "stateMutability": "view",
      "type": "function"
    }
  ],
  "bytecode": "0x608060405234801561001057600080fd5b506109a9806100206000396000f3fe608060405234801561001057600080fd5b50600436106100575760003560e01c8063ad10faf41461005c578063b89207e014610082578063ba870686146100a5578063c5b11a5b146100ae578063f80e1a3c146100c3575b600080fd5b61006f61006a3660046105a7565b6100e3565b6040519081526020015b60405180910390f35b6100956100903660046105e9565b61010e565b6040519015158152602001610079565b61006f60025481565b6100c16100bc366004610635565b610149565b005b6100d66100d13660046105a7565b61038d565b60405161007991906106ef565b60008083836040516100f692919061079d565b90815260405190819003602001902054905092915050565b60006001848460405161012292919061079d565b908152604080516020928190038301902060009485529091529091205460ff169392505050565b600084900361016b57604051631d73896960e31b815260040160405180910390fd5b600082900361018d57604051633aa185b760e21b815260040160405180910390fd5b806101ab5760405163f1ae58d560e01b815260040160405180910390fd5b6040805160c06020601f8801819004028201810190925260a081018681526000928291908990899081908501838280828437600092019190915250505090825250604080516020601f8801819004810282018101909252868152918101919087908790819084018382808284376000920182905250938552505050602082018590524260408084019190915233606090930192909252905191925090610254908890889061079d565b90815260405160209181900382019020805460018101825560009182529190208251839260050290910190819061028b908261084c565b50602082015160018201906102a0908261084c565b50604082810151600283015560608301516003830155608090920151600490910180546001600160a01b0319166001600160a01b039092169190911790555160019081906102f1908990899061079d565b9081526040805160209281900383019020600086815292528120805460ff19169215159290921790915560028054916103298361090c565b90915550506040513390610340908890889061079d565b60405180910390207f8ccadf7ab9a2fec933b3288a6b14c4f0ca69e95792ea6438234bba433696e6788686864260405161037d9493929190610933565b60405180910390a3505050505050565b6060600083836040516103a192919061079d565b9081526020016040518091039020805480602002602001604051908101604052809291908181526020016000905b8282101561055257838290600052602060002090600502016040518060a0016040529081600082018054610402906107c3565b80601f016020809104026020016040519081016040528092919081815260200182805461042e906107c3565b801561047b5780601f106104505761010080835404028352916020019161047b565b820191906000526020600020905b81548152906001019060200180831161045e57829003601f168201915b50505050508152602001600182018054610494906107c3565b80601f01602080910402602001604051908101604052809291908181526020018280546104c0906107c3565b801561050d5780601f106104e25761010080835404028352916020019161050d565b820191906000526020600020905b8154815290600101906020018083116104f057829003601f168201915b50505091835250506002820154602080830191909152600383015460408301526004909201546001600160a01b031660609091015290825260019290920191016103cf565b50505050905092915050565b60008083601f84011261057057600080fd5b50813567ffffffffffffffff81111561058857600080fd5b6020830191508360208285010111156105a057600080fd5b9250929050565b600080602083850312156105ba57600080fd5b823567ffffffffffffffff8111156105d157600080fd5b6105dd8582860161055e565b90969095509350505050565b6000806000604084860312156105fe57600080fd5b833567ffffffffffffffff81111561061557600080fd5b6106218682870161055e565b909790965060209590950135949350505050565b60008060008060006060868803121561064d57600080fd5b853567ffffffffffffffff8082111561066557600080fd5b61067189838a0161055e565b9097509550602088013591508082111561068a57600080fd5b506106978882890161055e565b96999598509660400135949350505050565b6000815180845260005b818110156106cf576020818501810151868301820152016106b3565b506000602082860101526020601f19601f83011685010191505092915050565b60006020808301818452808551808352604092508286019150828160051b87010184880160005b8381101561078f57603f19898403018552815160a0815181865261073c828701826106a9565b915050888201518582038a87015261075482826106a9565b838a0151878b0152606080850151908801526080938401516001600160a01b0316939096019290925250509386019390860190600101610716565b509098975050505050505050565b8183823760009101908152919050565b634e487b7160e01b600052604160045260246000fd5b600181811c908216806107d757607f821691505b6020821081036107f757634e487b7160e01b600052602260045260246000fd5b50919050565b601f82111561084757600081815260208120601f850160051c810160208610156108245750805b601f850160051c820191505b8181101561084357828155600101610830565b5050505b505050565b815167ffffffffffffffff811115610866576108666107ad565b61087a8161087484546107c3565b846107fd565b602080601f8311600181146108af57600084156108975750858301515b600019600386901b1c1916600185901b178555610843565b600085815260208120601f198616915b828110156108de578886015182559484019460019091019084016108bf565b50858210156108fc5787850151600019600388901b60f8161c191681555b5050505050600190811b01905550565b60006001820161092c57634e487b7160e01b600052601160045260246000fd5b5060010190565b606081528360608201528385608083013760006080858301015260006080601f19601f87011683010190508360208301528260408301529594505050505056fea26469706673582212208f9d9821917fce8245220cc7fd297764fa7c9a9e2496160c0de6a4f8c722aade64736f6c63430008140033",
  "linkReferences": {},
  "deployedLinkReferences": {}
}